:1000000059C100000C9446110C941B110C94F01073
:100010000C94C5100C949A100C946F100C9444100E
:100020000C94191078C1000076C1000074C1000062
:1000300072C1000070C100006EC100006CC1000000
:100040006AC1000068C1000066C1000064C1000010
:1000500062C100000C9459145EC100000C94CF0FD3
:100060005AC100000C94D0150C94A71554C100007F
:1000700052C1000050C100004EC100004CC1000040
:100080004AC1000048C1000046C1000044C1000050
:1000900042C1000040C100003EC100000C94120AA1
:1000A0003AC1000038C1000036C1000034C1000070
:1000B00032C1000030C100002EC100002CC1000080
:1000C0002AC1000028C1000026C1000024C1000090
:1000D00022C1000020C100001EC100001CC10000A0
:1000E0001AC10000E80EEB0EDA0EDE0EE20E220F51
:1000F000EF0EF30EF90EFD0E010F070F0B0F0F0F92
:10010000220F150F190F1D0FD71BDC1BE11BEB1B5B
:10011000F51B6E1CFF1B071C0F1C191C231C2D1C20
:100120003C1C461C6E1C501C5A1C641C0000220007
:10013000250028002B002E003100340002010000B1
:10014000050108010B0100002100240027002A00FE
:100150002D003000330001010000040107010A01F5
:1001600001021020200808102040102040800201C9
:1001700002010804020101020408102040808040AE
:1001800020100804020180040201804020100804AD
:10019000020108040201010204081020408001024B
:1001A0000408102040800505050507050808080813
:1001B000020202020A0A08080404040401010101FF
:1001C00001010101030303030303030304070707FA
:1001D0000C0C0C0C0C0C0C0C02020202060606069F
:1001E000060606060B0B0B0B0B0B0B0B7E306D790B
:1001F000335B5F707F7B771F0D3D4F470000000032
:1002000000000000000000000000000000000000EE
:100210000000000000000000800180007E306D7949
:10022000335B5F707F7B00000000000000771F0DD4
:100230003D4F4700370000000E000000670000003F
:1002400000000000000000000000000800771F0D03
:100250003D4F4700370000000E00151D67000000ED
:1002600000000000000000000000000000000A0B79
:1002700002090C0D0E080703040100000000000035
:10028000000000000000000000000000000000006E
:10029000000000000000000012111000000000002B
:1002A000000000000000000000000000000000004E
:1002B00000003F2011241FBECFEFD1E2DEBFCDBF33
:1002C00000E00CBF13E0A0E0B2E0E6EAFAE400E0F0
:1002D0000BBF02C007900D92AC30B107D9F727E0F1
:1002E000ACE0B3E001C01D92A030B207E1F711E02D
:1002F000CAE5D1E000E006C021970109802FFE0188
:100300000E941B25C935D10780E00807A9F70E9484
:10031000761C0C94512574CE85ED8093BC008091A1
:10032000BC0084FDFCCF10928F04089540913904E5
:10033000262F30E0240F311D21323105DCF42091CD
:100340008F042430C9F4FC0180E090E0861758F453
:10035000309139042191DC01A75EBB4FA30FB11D81
:100360002C930196F3CF80913904680F6093390480
:1003700080E0089581E0089582E00895E0911704F7
:10038000F0911804309729F0109291041092900483
:1003900019940895CF93DF93AC01E0919804F09104
:1003A00099043097F1F090919304809192049817FA
:1003B000C0F090E0292F30E02617370754F4D90118
:1003C000A950BC4FEA01C20FD31F88818C939F5F55
:1003D000F1CF1092930460939204CB01DF91CF91FF
:1003E0001994DF91CF9108950895E091930480913D
:1003F0009204E81730F4F0E0E950FC4F808190E07F
:1004000008958FEF9FEF0895909193048091920447
:10041000981750F4E92FF0E0E950FC4F208130E0CC
:100420009F5F9093930402C02FEF3FEFC90108959F
:100430008091920490E020919304821B9109089589
:10044000CF93DF931F921F92CDB7DEB7CB01642FFE
:1004500049835A836BDF4981842F5A81952F0F90EE
:100460000F90DF91CF910895CF93DF931F92CDB777
:10047000DEB7698361E0CE01019658DF81E090E04C
:100480000F90DF91CF910895089580E090E0089556
:100490006F927F928F929F92AF92BF92CF92DF9294
:1004A000EF92FF920F931F93CF93DF93FC0161159F
:1004B000710511F461E070E082859385049693875D
:1004C000828720853185A480B580821B930B95950A
:1004D0008795959587958A159B0514F03387228714
:1004E000C285D3857B836A83088119814F0120E10E
:1004F000820E911C808991898C179D0711F4118BB4
:10050000008B80899189340140E050E07F01ACE0AC
:10051000EA0EF11C4A155B050CF048C0DC01CD90D9
:10052000DC901197CC16DD0611F40D931C93DC01C1
:100530001296CD90DC901397C616D70654F4D401CA
:100540006D917C91119779836883CD93DC9360E002
:1005500070E0D3016D907C908E159F0539F1DC0120
:100560008D909C90D401CD90DC901197CC16DD0637
:1005700011F40D931C93D4011296CD90DC90139737
:10058000C616D70654F4DC016D917C9111977983DE
:100590006883CD93DC9360E070E08E149F0431F0AB
:1005A000D4018D919C914F5F5F4FB4CFD3011296D0
:1005B0008D919C91139797838683DF91CF911F91A3
:1005C0000F91FF90EF90DF90CF90BF90AF909F90F2
:1005D0008F907F906F900895DC011A962D913C9139
:1005E0001B972C5F3F4F1B963C932E931A971896A0
:1005F000ED91FC9119972E1B3F0B2C30310524F007
:100600001B96FC93EE931A971A960D90BC91A02D11
:1006100013967C936E93129722853385468157817A
:10062000828193814817590784F02817390714F0FD
:10063000CA0106C0841795076CF02417350754F0DB
:10064000281739073CF4C901089524173507C4F762
:10065000CA010895089561E08EE00E94B90E80916C
:10066000920490E020919304821B9109039751F426
:1006700081E080930C0388E596E0C6DE9093120338
:10068000809311038091920490E020919304821B47
:100690009109029799F480910C03882341F088E531
:1006A00096E0B2DE90931A038093190307C088E5A1
:1006B00096E0AADE909312038093110380910C03BD
:1006C000882321F088E596E09FDE09C088E596E062
:1006D0009BDE90931A03809319038FEF90E0909321
:1006E00016038093150310920C030895FF920F9345
:1006F0001F93CF93DF938091A2049091A304892B41
:1007000009F4E8C08FEF8093790680937A061EE0A3
:100710000E942919837020919A0430919B048111C1
:1007200089C080919C0490919D048217930709F4DD
:100730006EC02EE0289FE001299FD00D1124FE01FC
:10074000E759FC4FA485B585B0938406A093830632
:10075000408151816281738120E030E02A173B079C
:1007600074F489010858194FF901EC0FFD1FE7597E
:10077000FC4FF480F801F3822F5F3F4FEFCF0196DB
:100780008A30910529F410929D0410929C0404C0B3
:1007900090939D0480939C04DB01CA0188279927CC
:1007A000AA27BC712AE1B595A795979587952A95B3
:1007B000D1F780937806DB01CA018827BB27892FF0
:1007C0009A2FAB2FBB27A7FDBA95809385069093F0
:1007D0008606A0938706B093880640937906AC01FD
:1007E000BD0141505109610971094F3F5F4E6105DB
:1007F000710568F480937A068827A170BB278093DF
:10080000850690938606A0938706B093880688E7AE
:1008100096E09093F6038093F50365EF73E0809183
:10082000A2049091A304DF91CF911F910F91FF90AB
:100830000C946617129FE001139FD00D1124C35929
:10084000DC4F0E94291980FF06C081E60E944019F2
:1008500040E061E007C081FF08C081E70E944019C5
:1008600040E062E08CE20E94781820914C06ADE4F2
:10087000B6E0FE0130E0CF018C1B9D0B8217930781
:100880001CF48D918193F7CF80919A0490919B04F1
:10089000189FF001199FF00D1124E759FC4F35877F
:1008A0002487409148065091490660914A0670910C
:1008B0004B064083518362837383019690939B041C
:1008C00080939A040A9709F023CF10929B04109208
:1008D0009A041ECFDF91CF911F910F91FF90089541
:1008E000CF93DF931F921F92CDB7DEB70E94B41152
:1008F0009A8389838091A2049091A3040097F1F3D5
:100900006DE073E00E9436168823A1F3E0910D0399
:10091000F0910E03808190E0A0E0B0E02AE1880F22
:10092000991FAA1FBB1F2A95D1F745855685678554
:100930007089762F652F542F4427840F951FA61F8B
:10094000B71F2181820F911DA11DB11D8330984FCA
:10095000AE4FB841F9F48781608570E0762F662745
:10096000680F711D072E000C880B990B0E94F12354
:1009700020E030E040E05DE30E94A52420E030E884
:1009800048E853E40E94ED220E94C3237093280399
:100990006093270362E370E0CE0101960E94CC14BD
:1009A000A9CFCF93DF93CDB7DEB72A970FB6F894D0
:1009B000DEBF0FBECDBF8C010E94B4119D838C831E
:1009C00026E2422E542C33E1632E762C580127E088
:1009D000A20EB11C48013FE0830E911CCE0101968E
:1009E0009F838E83382E93E0390EF80182819381A4
:1009F0008233910519F481E390E006C084369105B5
:100A000031F482E690E0F801938382832BC0883C26
:100A1000910519F484EC90E0F6CF8A3F910519F422
:100A200084EF90E0F0CF843FF1E09F0719F489EE66
:100A300091E0E9CF883EF3E09F0731F421ED33E008
:100A4000F801338322830EC0883833E1930721F401
:100A5000F8017382628206C08031974219F4F8016E
:100A60005382428260E070E08091A0049091A104E2
:100A70000E943616813009F0B3C0F894F801258140
:100A800040815181868190E0A0E0B0E06C017D0161
:100A90008AE1CC0CDD1CEE1CFF1C8A95D1F760E0CE
:100AA00070E0B62FA52F942F88278C0D9D1DAE1DAD
:100AB000BF1D3481830F911DA11DB11D41505109EE
:100AC000610971094F3F5F4E6105710508F490C0DF
:100AD00021E0209347068093480690934906A0930F
:100AE0004A06B0934B0688E080934C06F501ADE4CE
:100AF000B6E081918D93E815F905D9F7E12CF12C39
:100B000090E360E470E599836A837B839E012F5FA5
:100B10003F4F6901F60121906F01822D69877A8725
:100B200098870E945E18E82FE87069857A85988515
:100B300083FD02C0239404C03C10ECCF212CE2E0E2
:100B4000FFEFEF1AFF0AE23071F422E3E216F1043C
:100B5000D1F6789460E070E08091A0049091A104B7
:100B60000E9466173DC032E3E316F10491F3409111
:100B70004C066DE476E085E0820D0E94A21880911B
:100B80005506813029F480914C06806480934C0690
:100B900060914C0684E0820D0E940F192091480656
:100BA0003091490640914A0650914B0660914706A4
:100BB000822D0E94D31848E068E08FEF820D0E94DA
:100BC000781822E330E0822D288739870E945E184A
:100BD0002885398583FFBDCF21503109A1F7B9CFD1
:100BE000F80162817381CE0104960E94CC14FDCE7F
:100BF0009927922B6DCFCF93DF931F921F92CDB782
:100C0000DEB70E94B4119A83898385E490E09093C3
:100C10005A03809359038AEF90E09093580380938E
:100C2000570390935403809353038EE390E0909383
:100C300068038093670344244A9483E0582E612C10
:100C4000712C22242A94312C22E3A22EB12C32E0E2
:100C5000832E912C85E40E94720F28E833E1DC0199
:100C60000E942325A30192010E94A022CA01B9017A
:100C70000E94F1232BE83CE640E052E40E94A524C8
:100C800020E030E04AE754E40E94562320E53DE8A6
:100C900044E851E40E94ED220E94BE2377FD19C072
:100CA000072E000C880B990B0E94F1232AED31EAE4
:100CB0004CED50E40E94A52420E030E040E85EE3E3
:100CC0000E94A5240E94C32370935603609355038A
:100CD00004C030925603209255036091190370911D
:100CE0001A03709318036093170380911503909172
:100CF00016039093140380931303209111033091F2
:100D000012038F3F910509F470C02C303105D1F0EA
:100D10002234310509F0C4C0762F6627860F971F4D
:100D2000B5010E940825072E000C880B990B0E9424
:100D3000F123609345037093460380934703909398
:100D40004803AEC0762F6627680F791F660F771F9E
:100D5000072E000C880B990B0E94F1236B017C017C
:100D600060933D0370933E0380933F039093400351
:100D700020E030E040E251E40E94A124181664F41F
:100D800061E080E1F6D7C0924103D0924203E09245
:100D90004303F092440384C060E080E1EAD7A0916D
:100DA0006A06B0916B0620E03AE00E942325A30179
:100DB00092010E94A022DA01C90180599140A10943
:100DC000B109BC01CD01B3E0660F771F881F991FE1
:100DD000BA95D1F70E94F1236093410370934203C7
:100DE00080934303909344035BC02B30310509F497
:100DF00046C064F42430310579F12530310509F01D
:100E00004FC070934A03609349034AC023333105AE
:100E1000E9F12934310559F02E30310509F040C08F
:100E200066547109709334036093330339C0685377
:100E30007109072E000C880B990B0E94F12323E007
:100E400032E449EC5FE30E94A5240E94C32370931F
:100E50002A036093290324C0072E000C880B990BEA
:100E60000E94F12323E333E343E250E40E9456233C
:100E70000E94C32370932C0360932B0311C0660F51
:100E8000771F70933203609331030AC077FF02C06B
:100E90006F5F7F4F759567957093500360934F0315
:100EA00060E08EE066D760914103709142038091CB
:100EB0004303909144030E94C3236093CC04709336
:100EC000CD04609145037091460380914703909152
:100ED00048030E94C3236093DC047093DD04809177
:100EE00029038093AC0480912B038093AD0460911F
:100EF0002D0370912E0380912F03909130030E9457
:100F0000C3236093B1047093B20480913103809342
:100F1000BB04809133038093BC040091490310917A
:100F20004A030093E70480914F0380930505809165
:100F3000510380932305809153038093250580916D
:100F40005503809326058091570380932A0580914D
:100F500059038093320580915B038093340580911F
:100F60005D0380933305809137038093CA04809199
:100F700039038093CB0480913B038093D00480910C
:100F80004B038093F70480914D038093F604809186
:100F900067038093420560912703709128036634AC
:100FA000710598F180E090E00E94EF232AE939E989
:100FB00049E95FE30E94A52420E030E040E352E4E9
:100FC0000E94ED2223E333E343E250E40E94A52490
:100FD0006B017C0120E030E040E85FE30E94522397
:100FE00087FD13C020E030E04FE753E4C701B601AE
:100FF0000E94A124181634F0C701B6010E94BE2336
:10100000CB0105C08FEF90E002C081E090E00E942C
:10101000B21B80910F03909110038130910539F13B
:101020008230910559F1892B81F520E030E040E0D4
:101030005EE360913D0370913E0380913F03909188
:1010400040030E94A52420E030E048E453E40E94DD
:10105000522318163CF081E090E0909310038093A7
:101060000F0313C09092100380920F030EC008521A
:1010700011090333110528F061E001C060E084E04C
:1010800078D61092100310920F0384E42BD740916E
:10109000660650916706E0916406F09165069A0134
:1010A0003595279540FF0AC0D901AC59B94F4D91EC
:1010B0005C91E40FF51F0190F081E02DBC01C901A6
:1010C0008C59994F199564E170E0CE0101960E9408
:1010D000CC14C0CD0F931F93CF93DF93EC018B0102
:1010E00041E0672B09F040E0CE016AE070E00E9429
:1010F0000825682F84E090E00E94BE1941E001308D
:10110000110509F040E02AE030E0CE01B9010E946B
:101110000825CB01B9010E940825682F85E090E0E1
:101120000E94BE1941E00230110509F040E0CE01F5
:1011300064E670E00E940825CB016AE070E00E943E
:101140000825682F86E090E00E94BE1941E0033038
:10115000110509F040E0CE0168EE73E00E94082519
:10116000CB016AE070E00E940825682F87E090E0DC
:10117000DF91CF911F910F910C94BE190F931F9384
:10118000CF93DF93EC018B0141E0672B09F040E046
:10119000CE016AE070E00E940825682F80E090E0B0
:1011A0000E94BE1941E00130110509F040E02AE03B
:1011B00030E0CE01B9010E940825CB01B9010E949F
:1011C0000825682F81E090E00E94BE1941E00230BE
:1011D000110509F040E0CE0164E670E00E940825A8
:1011E000CB016AE070E00E940825682F82E090E061
:1011F0000E94BE1941E00330110509F040E0CE0124
:1012000068EE73E00E940825CB016AE070E00E945E
:101210000825682F83E090E0DF91CF911F910F9117
:101220000C94BE198C01F89461E08DE01FD6C0E0EB
:10123000D0E0C017D107D4F461E08DE09AD580E802
:1012400099EAA3E0B0E000000197A109B109D9F73C
:1012500060E08DE08ED580E899EAA3E0B0E0000080
:101260000197A109B109D9F72196E3CF40E05AE6E9
:1012700068E170E000004150510961097109D1F73E
:10128000D6CF0F931F93CF93DF931F921F92CDB7AB
:10129000DEB789839A830E94BE1189819A810E9458
:1012A0005D218C010E945B140115110519F482E087
:1012B00090E0B8DFC8010F900F90DF91CF911F91A0
:1012C0000F91089581E090E0ADDF2F923F924F9211
:1012D0005F926F927F928F929F92AF92BF92CF92C6
:1012E000DF92EF92FF920F931F93CF93DF931F92A2
:1012F0001F92CDB7DEB78C0149832A83660F771F13
:10130000F801EA5AFF4FE080F180EE0CFF1CF80173
:10131000CF01801B910B8E159F0514F41192F8CF0D
:101320008981F801E60FF71F81838A818083580144
:1013300084E5A80EB11C60E0F50180811AD5E00EAD
:10134000F11E4801F2E58F0E911C380180E5680E10
:10135000711CC701801B910B181619060CF5F701BB
:10136000C2907F01F4013080F301208087E0482E95
:10137000512CD12CB601042C02C0759567950A94A6
:10138000E2F761707727822DF4D461E0832DF1D4E8
:1013900060E0832DEED4F1E04F1A510858F7D9CF11
:1013A00061E0F50180810F900F90DF91CF911F9147
:1013B0000F91FF90EF90DF90CF90BF90AF909F90F4
:1013C0008F907F906F905F904F903F902F90D1C4FF
:1013D000CF92DF92EF92FF920F931F93CF93DF9301
:1013E0008C017B016B0183E0CC0CDD1C8A95E1F75D
:1013F000C1E0D0E0FE01EC0DFD1DE00FF11F1786EE
:1014000020E04C2FB701C80160DF2196C930D1051B
:1014100089F7DF91CF911F910F91FF90EF90DF90AF
:10142000CF9008951F920F920FB60F9211240BB612
:101430000F922F933F934F935F936F937F938F936D
:101440009F93AF93BF93EF93FF938091B900887FF1
:10145000803609F49CC068F5883209F45BC090F4CA
:10146000803109F454C038F4882309F4F6C0883078
:1014700009F44DC0F6C0883109F44CC0803209F43B
:101480005DC0EFC0803409F468C048F4803309F4CB
:1014900055C0883309F0E5C080935C04D8C080351E
:1014A00009F44FC0883509F45DC0883409F0D9C00B
:1014B000D6C0883909F4C7C0A8F4883709F467C0D2
:1014C00038F4883609F463C0803709F460C0C9C0B5
:1014D000883809F4B8C0803909F45FC0803809F051
:1014E000C0C05BC0803B09F486C038F4803A09F480
:1014F00066C0883A09F47FC0B4C0803C09F4A7C034
:10150000883C09F4A4C0883B09F48AC0AAC0809131
:101510007F0410C090917E0480917D04981770F52F
:10152000E0917E0481E08E0F80937E04F0E0E35A28
:10153000FB4F80818093BB0085EC86C080935C0468
:101540008EC0E0917E0481E08E0F80937E048091B6
:10155000BB00F0E0E35AFB4F808390917E048091C2
:101560007D046EC0E0917E0481E08E0F80937E0446
:101570008091BB00F0E0E35AFB4F808380918E04A2
:1015800081116DC081E080938D0484EA61C083E0A5
:1015900080938F0410925B04CFCF80915B048032E4
:1015A00008F051C0E0915B0481E08E0F80935B04F2
:1015B0008091BB00F0E0E55CFB4F8083BDCF85EC04
:1015C0008093BC0010928F0480915B04803230F4D1
:1015D000E0915B04F0E0E55CFB4F108260915B04FE
:1015E00070E0E0919404F09195048BE394E01995F8
:1015F00010925B0436C084E080938F0410923A040A
:1016000010923904E0919604F09197041995809115
:101610003904811105C081E08093390410921904C6
:10162000E0913A0481E08E0F80933A04F0E0E75EA7
:10163000FB4F80818093BB0090913A0480913904E4
:10164000981708F479CF85E88093BC000AC085EC30
:101650008093BC0010928F0404C010925C040E941E
:101660008C01FF91EF91BF91AF919F918F917F91ED
:101670006F915F914F913F912F910F900BBE0F9003
:101680000FBE0F901F901895AF92BF92CF92DF922E
:10169000EF92FF920F931F93CF93DF931F92CDB7DB
:1016A000DEB75C017B018B016C0184E0C80ED11CAC
:1016B000F80161918F01C50169830E948A226981C5
:1016C000681719F0C5010E949222FFEFAF1ABF0AF6
:1016D000AC14BD0469F7C7010F90DF91CF911F9142
:1016E0000F91FF90EF90DF90CF90BF90AF90089553
:1016F000CF93DF9300D000D0CDB7DEB735D69E8331
:101700008D839CE3892E912CA12CB12C22242A9428
:1017100023E0322E412C512CC0903D03D0903E034B
:10172000E0903F03F090400320E030E040E251E4DD
:10173000C701B6010E94A12418160CF0D3C020E006
:1017400030E040E05EE3C701B6010E94A5240E949C
:10175000BE23DC01CB0160E070E0BCDC60E070E047
:101760008091290390912A0309DD68EB7BE080E0FA
:1017700090E0DDD38091490390914A0360E070E0EE
:101780008897A8DC60E070E080912703909128039F
:10179000F5DC68EB7BE080E090E0C9D384E6782E4E
:1017A00080911D0390911E039C012F5F3F4F30934A
:1017B0001E0320931D0306970CF06FC08FB7F8949B
:1017C000C0908004D0908104E0908204F090830463
:1017D0008FBF8091230390912403A0912503B091A2
:1017E0002603C81AD90AEA0AFB0AC0921F03D0923C
:1017F0002003E0922103F0922203C701B60120E604
:101800003AEE40E050E00E94BC22CA01B901A501B5
:1018100094010E94BC22769E8001779E100D1124B7
:10182000C701B60128EE33E040E050E00E94BC2240
:10183000CA01B901A50194010E94BC22C801860F0A
:10184000971F62E070E09ADCC701B60120E03CE53A
:1018500046E255E00E94BC22729E8001739E100DEC
:101860001124C701B60120E83EEE46E350E00E9495
:10187000BC22CA01B90128E130E040E050E00E94FA
:10188000BC22C801860F971F62E070E023DC68EE7F
:1018900073E080E090E04BD383CF10921E03109250
:1018A0001D0340913A0550913B0560913C057091B4
:1018B0003D0580911F0390912003A0912103B091D9
:1018C0002203840F951FA61FB71F89839A83AB83BA
:1018D000BC83BE016F5F7F4F80913E0590913F05B5
:1018E000D3DE13C02FB7F8948091800490918104C7
:1018F000A0918204B09183042FBF8093230390931F
:101900002403A0932503B093260300911B03109199
:101910001C0301151105A9F020E030E040E05FE371
:10192000609145037091460380914703909148036D
:101930000E94A5240E94BE23DC01CB0161E070E07F
:101940000EC02091490330914A034AE0429FC001F2
:10195000439F900D112461E070E080599140BADB03
:1019600081E090E0012B11F080E090E090931C0367
:1019700080931B03A0916A06B0916B0620E03AE0C9
:101980000E942325A20191010E94A022C901805931
:10199000914062E070E0F2DB20E030E040E251E4B0
:1019A00060913D0370913E0380913F03909140030D
:1019B0000E94A12418162CF064EF71E080E090E002
:1019C00004C068EB7BE080E090E0B1D264EF71E0AE
:1019D000CE010596E1D7A0CEFC01538D448D252F75
:1019E00030E0842F90E0821B930B541710F0CF96B9
:1019F000089501970895FC01918D828D981761F0EB
:101A0000828DDF01A80FB11D5D968C91928D9F5F35
:101A10009F73928F90E008958FEF9FEF0895FC01E0
:101A2000918D828D981731F0828DE80FF11D858D93
:101A300090E008958FEF9FEF0895FC01918D228D26
:101A4000892F90E0805C9F4F821B91098F739927AB
:101A5000089580E090E0892B21F00E9457158111B4
:101A600025C080E090E0892B41F080E090E0892B58
:101A700021F00E94000081111CC080E090E0892BC1
:101A800041F080E090E0892B21F00E94000081115C
:101A900013C080E090E0892BA1F080E090E0892BDA
:101AA00081F00E94000081110AC008950E94000088
:101AB000D8CF0E940000E1CF0E940000EACF0C9432
:101AC000000008953FB7F8948091890490918A04AA
:101AD000A0918B04B0918C0426B5A89B05C02F3F24
:101AE00019F00196A11DB11D3FBFBA2FA92F982F44
:101AF0008827820F911DA11DB11DBC01CD0142E0BF
:101B0000660F771F881F991F4A95D1F7089508958A
:101B10000F931F93CF93DF938C01FB018081918101
:101B20008F3F2FEF920721F4E801AF81B8850EC0F7
:101B3000D801139612962D913C911397E901488193
:101B400059818417950710F0D901F4CF12968D9121
:101B50009C91139793838283EC01FD83EC83B5837F
:101B6000A4831396FC93EE93129711870087F801D4
:101B700080818F5F8083DF91CF911F910F910895B6
:101B8000CF93DF93E091A805F091A9059383828319
:101B90002091A5053091A6058217930768F46091FE
:101BA000A8057091A90580915F05909160056E5F11
:101BB0007F4FDF91CF91ACCFEC016091A805709180
:101BC000A90580916105909162056E5F7F4FA0DF4E
:101BD00080919E0490919F04C817D90720F4D09358
:101BE0009F04C0939E04DF91CF9108950E943D25EC
:101BF00010928704E091A805F091A9050788F08D5F
:101C0000E02D80819181A281B381853A954AA54AD0
:101C1000B54AE9F484819581A681B781853A954AD0
:101C2000A54AB54AA1F480859185A285B385853AF8
:101C3000954AA54AB54A59F484859585A685B78500
:101C4000853A954AA54AB54A11F499E010C08091A9
:101C5000A8059091A9058091A8059091A90583E018
:101C600090E0E0DA80918005815080938005E091DA
:101C700080059E9FF0011124EF57FA4F808181115A
:101C800005C0809180058111EDCF1CDB809180051E
:101C900090E049E0489F9001499F300D1124F901DF
:101CA000EF57FA4FA181B28112960D90BC91A02DF1
:101CB000B283A1832C573A4FA217B30731F412967F
:101CC0002D913C9113973283218329E0289FF001C5
:101CD000299FF00D1124EF57FA4F0180F281E02D7A
:101CE000868197819093A9058093A8050895FC01AA
:101CF000848DDF01A80FB11DA35ABF4F2C91848D95
:101D000090E001968F739927848FA689B7892C93C9
:101D1000A089B1898C9180648C93938D848D981364
:101D200006C00288F389E02D80818F7D808308952D
:101D3000CF93DF93EC01888D8823C1F0EA89FB897A
:101D4000808185FD05C0A889B9898C9186FD0EC06A
:101D50000FB607FCF5CF808185FFF2CFA889B9893E
:101D60008C9185FFEDCFCE01C2DFE8CFDF91CF911F
:101D70000895362F90E0FC01E459FD4F4491FC0199
:101D8000E05AFE4F2491FC01EA55FE4F94919923AD
:101D900009F46BC0442309F455C050E0FA013197AF
:101DA000E231F10508F04EC08827EE58FF4F8F4F03
:101DB0000C941B25809180008F7707C08091800054
:101DC0008F7D03C080918000877F809380003AC020
:101DD00084B58F7702C084B58F7D84BD33C0809178
:101DE000B0008F7703C08091B0008F7D8093B000EA
:101DF00029C0809190008F7707C0809190008F7DDF
:101E000003C080919000877F809390001BC08091D9
:101E1000A0008F7707C08091A0008F7D03C08091C4
:101E2000A000877F8093A0000DC0809120018F7754
:101E300007C0809120018F7D03C080912001877FA2
:101E400080932001E92FF0E0EE0FFF1FE45DFE4FCD
:101E5000A591B4918FB7F894EC91311103C02095FE
:101E60002E2301C02E2B2C938FBF0895CF93DF9389
:101E700090E0FC01E05AFE4F2491FC01EA55FE4F30
:101E80008491882361F190E0880F991FFC01EA5B3F
:101E9000FE4FC591D491FC01E45DFE4FA591B49134
:101EA000611109C09FB7F8948881209582238883A7
:101EB000EC912E230BC0623061F49FB7F894388107
:101EC000822F809583238883EC912E2B2C939FBFA8
:101ED00006C08FB7F894E8812E2B28838FBFDF913F
:101EE000CF910895863308F0865390917B00282F78
:101EF0002870977F922B90937B008770209100022F
:101F000090E4299F90011124822B80937C00809182
:101F10007A00806480937A0080917A0086FDFCCFFD
:101F2000809178002091790090E0922B08958F9213
:101F30009F92AF92BF92CF92DF92EF92FF926B018E
:101F40007C01C0DD4B015C01C114D104E104F1044A
:101F5000E9F0B8DDDC01CB0188199909AA09BB09B0
:101F6000883E9340A105B10578F321E0C21AD1085B
:101F7000E108F10888EE880E83E0981EA11CB11CD0
:101F8000C114D104E104F10421F7DECFFF90EF90FA
:101F9000DF90CF90BF90AF909F908F9008951F9249
:101FA0000F920FB60F9211242F933F938F939F930D
:101FB000AF93BF938091800490918104A09182049B
:101FC000B09183043091880423E0230F2D3720F44F
:101FD0000196A11DB11D05C026E8230F0296A11D83
:101FE000B11D209388048093800490938104A09372
:101FF0008204B09383048091890490918A04A09113
:102000008B04B0918C040196A11DB11D80938904AD
:1020100090938A04A0938B04B0938C04BF91AF91EA
:102020009F918F913F912F910F900FBE0F901F9016
:1020300018951F920F920FB60F9211240BB60F92A4
:102040002F933F934F935F936F937F938F939F93C0
:10205000AF93BF93EF93FF93E0910F02F0911002C3
:102060001995FF91EF91BF91AF919F918F917F91C2
:102070006F915F914F913F912F910F900BBE0F90F9
:102080000FBE0F901F9018951F920F920FB60F92D0
:1020900011240BB60F922F933F934F935F936F933F
:1020A0007F938F939F93AF93BF93EF93FF93E091B1
:1020B0000D02F0910E021995FF91EF91BF91AF9132
:1020C0009F918F917F916F915F914F913F912F9150
:1020D0000F900BBE0F900FBE0F901F9018951F9280
:1020E0000F920FB60F9211240BB60F922F933F93BE
:1020F0004F935F936F937F938F939F93AF93BF9310
:10210000EF93FF93E0910302F09104021995FF9180
:10211000EF91BF91AF919F918F917F916F915F915F
:102120004F913F912F910F900BBE0F900FBE0F90CC
:102130001F9018951F920F920FB60F9211240BB695
:102140000F922F933F934F935F936F937F938F9350
:102150009F93AF93BF93EF93FF93E0910102F091B0
:1021600002021995FF91EF91BF91AF919F918F91CD
:102170007F916F915F914F913F912F910F900BBE87
:102180000F900FBE0F901F9018951F920F920FB6D1
:102190000F9211240BB60F922F933F934F935F939F
:1021A0006F937F938F939F93AF93BF93EF93FF931F
:1021B000E0910B02F0910C021995FF91EF91BF9104
:1021C000AF919F918F917F916F915F914F913F91CF
:1021D0002F910F900BBE0F900FBE0F901F90189570
:1021E0001F920F920FB60F9211240BB60F922F93DE
:1021F0003F934F935F936F937F938F939F93AF938F
:10220000BF93EF93FF93E0910902F0910A021995B1
:10221000FF91EF91BF91AF919F918F917F916F91BE
:102220005F914F913F912F910F900BBE0F900FBE7A
:102230000F901F9018951F920F920FB60F921124B6
:102240000BB60F922F933F934F935F936F937F93B0
:102250008F939F93AF93BF93EF93FF93E091070208
:10226000F09108021995FF91EF91BF91AF919F9165
:102270008F917F916F915F914F913F912F910F902F
:102280000BBE0F900FBE0F901F9018951F920F92CC
:102290000FB60F9211240BB60F922F933F934F93CB
:1022A0005F936F937F938F939F93AF93BF93EF93BE
:1022B000FF93E0910502F09106021995FF91EF91CD
:1022C000BF91AF919F918F917F916F915F914F914E
:1022D0003F912F910F900BBE0F900FBE0F901F904C
:1022E00018958EBD00000DB407FEFDCF8EB5089584
:1022F000FC01892B11F40E94620961157105D9F363
:102300000FB6F8940F924091A5055091A605DB01F8
:102310008D919C918F3FBFEF9B0701F1B091A70575
:10232000A08121813281BA1719F042175307C0F4F6
:10233000DA01A21BB30BA817B90790F4241B350BC5
:10234000820F931FDB018D939C938091A70580835F
:102350008091A5059091A6059283818380E001C0BC
:1023600081E00F900FBE08950FB6F8940F92809100
:10237000A5059091A6050F900FBE08958091850444
:102380008F5F8093850408950F920FB6F8940F9293
:102390000BB60F920CB60F921F9211242F923F9200
:1023A0004F925F926F927F928F929F92AF92BF9265
:1023B000CF92DF92EF92FF920F931F932F933F9351
:1023C0004F935F936F937F938F939F93AF93BF933D
:1023D000CF93DF93EF93FF93A091A805B091A90548
:1023E0000DB60D920EB60D9280918504882321F0D2
:1023F00081E08093870401C0FBDBA091A805B09128
:10240000A905CD91CDBFDD91DEBFFF91EF91DF91A9
:10241000CF91BF91AF919F918F917F916F915F917C
:102420004F913F912F911F910F91FF90EF90DF906F
:10243000CF90BF90AF909F908F907F906F905F9064
:102440004F903F902F901F900F900CBE0F900BBE9F
:102450000F900FBE0F900895CF93DF93FC01A085DE
:10246000B1858281938124813581EC013D832C8368
:10247000C481D5819B838A8311968D919C911297FB
:102480008E179F0721F41296DC93CE931197118635
:1024900010868C9181508C93DF91CF910895CF93CA
:1024A000DF939C01FB01DC011196CD91DC91129729
:1024B000D383C2838C819D81958384838C819D810C
:1024C000DC0113967C936E9312977D836C83318726
:1024D0002087F90180818F5F8083DF91CF910895FC
:1024E0000F931F93CF93DF93DC011596ED91FC9131
:1024F0001697C681D781209711F40E9462098E0138
:10250000045F1F4FC801A8DF80918504811113C0AB
:102510000A501109C801A0DF9E89809180058917A2
:1025200010F490938005B9E09B9FC0011124B8017D
:102530008F579A4F03C0B80185E795E0B0DFE0916F
:10254000A805F091A9059E898689891720F481E064
:102550008093870401C080E0DF91CF911F910F919C
:102560000895FF920F931F93CF93DF93EC010FB663
:10257000F8940F928C010F5E1F4FFF24F3949E8DF1
:10258000191664F48989882349F0C801A9DF8111EB
:10259000F09287049E8D91509E8FF1CF8FEF8E8F9A
:1025A0000F900FBE0FB6F8940F928E01085F1F4F69
:1025B000FF24F3949D8D191664F48885882349F0CF
:1025C000C8018EDF8111F09287049D8D91509D8FFF
:1025D000F1CF8FEF8D8F0F900FBEDF91CF911F91B5
:1025E0000F91FF900895CF93DF93EB01009711F4C3
:1025F0000E9462092091A8053091A905B901645F84
:102600007F4F86DA8091A8059091A905029624DF74
:10261000CF3F8FEFD80759F46091A8057091A905B5
:102620006E5F7F4F83E695E0DF91CF9138CF809149
:10263000A5059091A6058C0F9D1FDF91CF91A0CA93
:10264000CF92DF92EF92FF920F931F93CF93DF937E
:10265000809185048111AEC08091A5059091A60559
:1026600001969093A6058093A505E090A505F090AE
:10267000A605E114F104B9F5E0916105F091620558
:10268000808181110E9462098091610590916205AB
:1026900020915F05309160053093620520936105BC
:1026A0009093600580935F058091A7058F5F80936D
:1026B000A705E0916105F09162058081811103C059
:1026C0008FEF9FEF0CC0E0916105F09162050580EE
:1026D000F681E02D0680F781E02D82819381909331
:1026E0009F0480939E0480919E0490919F04C0E07B
:1026F000E816F90608F44CC0D9E0E0916105F091C4
:1027000062058081811103C08FEF9FEF11C0E091BE
:102710006105F09162050580F681E02D0681178143
:10272000D80112968D919C911397E816F90628F41A
:1027300090939F0480939E042BC06801B2E0CB0E5F
:10274000D11CC60189DEF80184899589892B19F08D
:10275000C8010C9681DED80156969C918091800527
:10276000891710F490938005D99FC0011124B601F8
:102770008F579A4F94DEE091A805F091A905D801F2
:1027800056969C918689981708F4B7CFC1E0B5CFCB
:10279000E091A805F091A905E689B9E0EB9FF00169
:1027A0001124EF57FA4F8081823008F0C1E0809108
:1027B000840406C0809184048F5F80938404C0E009
:1027C000809187048111C1E08C2FDF91CF911F91FF
:1027D0000F91FF90EF90DF90CF9008950F920FB67A
:1027E000F8940F920BB60F920CB60F921F92112411
:1027F0002F923F924F925F926F927F928F929F9211
:10280000AF92BF92CF92DF92EF92FF920F931F93FE
:102810002F933F934F935F936F937F938F939F93E8
:10282000AF93BF93CF93DF93EF93FF93A091A8054E
:10283000B091A9050DB60D920EB60D9201DF882359
:1028400049F080918504882321F081E080938704FA
:1028500001C0CED9A091A805B091A905CD91CDBF59
:10286000DD91DEBFFF91EF91DF91CF91BF91AF91ED
:102870009F918F917F916F915F914F913F912F9198
:102880001F910F91FF90EF90DF90CF90BF90AF908E
:102890009F908F907F906F905F904F903F902F9080
:1028A0001F900F900CBE0F900BBE0F900FBE0F909D
:1028B000089594DF1895EF92FF920F931F93CF9393
:1028C000DF9380918504811102C00E9462090FB6D6
:1028D000F8940F92809185048150809385048091B3
:1028E0008504882311F080E04EC080917F05882305
:1028F000D1F389E0F82EEE24E394809175058823C6
:1029000039F1E0917A05F0917B05C681D781CE013E
:102910000C96A2DD8E010E5F1F4FC8019DDD9E89C2
:1029200080918005891710F490938005F99EC0016D
:102930001124B8018F579A4FB2DDE091A805F091AC
:10294000A9059E8986899817C0F2E0928704D5CFA1
:1029500080918404811108C080918704813009F03E
:10296000C2CF12DD81E00FC0C1E0809184048823D2
:1029700099F366DE8111C0938704809184048150AD
:1029800080938404F2CF0F900FBEDF91CF911F91FF
:102990000F91FF90EF9008950F931F93CF93DF93C4
:1029A0008C01EB01892B11F40E9462092097E1F35D
:1029B000809185048111F8CFE1DC4091A50550910B
:1029C000A605F80120813181C20FD31F421753079A
:1029D00028F4C217D30748F491E004C091E0C2176D
:1029E000D30720F04C175D0708F090E0F801D18381
:1029F000C083992341F08091A8059091A905029682
:102A00002BDDCE01BDD857DF811101C0BDDCDF91C8
:102A1000CF911F910F910895FC01039692838183BA
:102A20002FEF3FEF348323839683858390878783BB
:102A300010820895CF93DF93009741F0EC019EDC64
:102A4000CE010E94F221DF91CF9135CFDF91CF915E
:102A5000089580918604882321F190DCC0916C0553
:102A60002ADFCC23B1F30FB6F8940F92E0917105F1
:102A7000F0917205C681D781CE010296EDDC80917E
:102A80007F05815080937F058091860481508093DB
:102A900086040F900FBE8F89988DCCDFCE01CADFE0
:102AA000D8CF809181058230A0F26EDCD2CF8AEA45
:102AB00095E00E941D0D21E0892B09F420E0822F72
:102AC0000895EF92FF920F931F93CF93DF93EC0142
:102AD00081E0888F9B8D8C8D981305C0E889F989DA
:102AE000808185FD23C0F62E0B8D10E00F5F1F4FF8
:102AF0000F731127E02E8C8DE8120BC00FB607FC68
:102B0000FACFE889F989808185FFF5CFCE01EFD82A
:102B1000F2CF8B8DFE01E80FF11DE35AFF4FF082DB
:102B20000B8FEA89FB898081806207C0EE89FF896B
:102B30006083E889F98980818064808381E090E006
:102B4000DF91CF911F910F91FF90EF9008951F9209
:102B50000F920FB60F9211240BB60F922F933F9343
:102B60004F935F936F937F938F939F93AF93BF9395
:102B7000EF93FF938AEA95E0BAD8FF91EF91BF9166
:102B8000AF919F918F917F916F915F914F913F9105
:102B90002F910F900BBE0F900FBE0F901F901895A6
:102BA0001F920F920FB60F9211240BB60F922F9314
:102BB0008F939F93EF93FF93E091BA05F091BB053C
:102BC0008081E091C005F091C10582FD12C0908125
:102BD0008091C3058F5F8F732091C405821751F0D8
:102BE000E091C305F0E0E655FA4F958F8093C30559
:102BF00001C08081FF91EF919F918F912F910F9054
:102C00000BBE0F900FBE0F901F901895CF92DF92C2
:102C1000FF920F931F93CF93DF931F92CDB7DEB731
:102C2000F82E162F042F60E0809157067983A1D8E3
:102C300083E057DB8F2D55DBF12EC12E7981D72E06
:102C40008C2D8F19801730F480E04BDBF6018193D7
:102C50006F01F6CF61E0809157060F90DF91CF9121
:102C60001F910F91FF90DF90CF9083C85F926F927A
:102C70007F928F929F92AF92BF92CF92DF92EF920C
:102C8000FF920F931F93CF93DF9300D01F921F9259
:102C9000CDB7DEB78C016B018AE090E09D838C8319
:102CA0000115110511F40E946209672B21F4F80146
:102CB000848D8111F8CF80E05801F1E1AF0EB11C95
:102CC00099E0592E24E0822E912C0FB6F8940F92A1
:102CD000F801928D992309F443C0448D4423B1F047
:102CE00050E086819781840F951F97838683228188
:102CF00033818217930720F08081918197838683A7
:102D0000F80166817781C6010E944125F801828D14
:102D10008150828F80819181892BA1F48091A805B7
:102D20009091A905892B39F0E091A805F091A905AA
:102D300082A18F5F82A38091A8059091A905F801D7
:102D400093838283F8018085882331F0C801089637
:102D5000C7DB813009F418DB0F900FBE81E0A1C002
:102D60002C813D81232B19F40F900FBE99C0811146
:102D700009C08091A70589838091A5059091A6053A
:102D80009B838A830F900FBEF9DA0FB6F8940F92E7
:102D9000F801858D8F3F09F4158EF801868D8F3FE0
:102DA00009F4168E0F900FBEBE016C5F7F4FCE01EF
:102DB00001969EDA811171C00FB6F8940F92F80156
:102DC000828D0F900FBE811164C080819181892B0B
:102DD00009F052C00FB6F8940F92E280F380E1142C
:102DE000F10409F447C0F7018689E091A805F09144
:102DF000A9059689891708F03DC0F7012485358516
:102E000037FD0BC0E091A805F091A90596899401C2
:102E1000291B3109F70135872487589EC0011124E9
:102E20008F579A4FF7012285338528173907D9F430
:102E30003701F2E06F0E711CC3010EDBE091A805B3
:102E4000F091A9059689F701968B809180058917E5
:102E500010F490938005599EC0011124B3018F573F
:102E60009A4F1DDB07C0E091A805F091A90586895E
:102E7000F701868B0F900FBE6C817D81C501B3DB9E
:102E8000C8016FDB18DD882311F081E01ECF7CDAEA
:102E9000FCCFC80166DB0FDDF8CFC80162DB0BDDBC
:102EA00080E00F900F900F900F900F90DF91CF91D7
:102EB0001F910F91FF90EF90DF90CF90BF90AF9058
:102EC0009F908F907F906F905F900895CF92DF9248
:102ED000EF92FF920F931F93CF93DF9300D01F9237
:102EE0001F92CDB7DEB78C017B011D821C8200973B
:102EF00011F40E946209672B21F4FC01848D811179
:102F0000F8CF90E06801F8E0CF0ED11C0FB6F8942E
:102F10000F92F801228D838D281708F076C0448D1A
:102F2000411146C080819181892B09F059C0F80177
:102F3000E280F380E114F10411F480E035C0809167
:102F4000A8059091A905E816F90699F6F70182A15E
:102F5000882379F2815082A3268991A1291769F3E8
:102F60008111EBCF6701F2E0CF0ED11CC60174DAFC
:102F7000F70191A1968B492F50E024E030E0241B0B
:102F8000350B3587248780918005891710F490933D
:102F9000800529E0249FC001259F900D1124B601D2
:102FA0008F579A4F7CDA81E0F8011382128219C0A0
:102FB00050E0B701F801848195810E944125F80114
:102FC000248D84819581820F911D95838483228134
:102FD00033818217930720F08081918195838483C8
:102FE00080E0F801928D9F5F928F9189992339F04B
:102FF000C801419675DA813021F4C6D902C0811129
:10300000FCCF0F900FBE81E04BC02C813D81232B64
:1030100019F40F900FBE43C0911109C08091A7050C
:1030200089838091A5059091A6059B838A830F9043
:103030000FBEA4D90FB6F8940F92F801858D8F3F7B
:1030400009F4158EF801868D8F3F09F4168E0F90C6
:103050000FBEBE016C5F7F4FCE01019649D9811131
:103060001BC00FB6F8940F92F801928D0F900FBE0F
:10307000838D98130DC06C817D81C601B4DAC801BF
:1030800070DA19DC882311F091E040CF7DD9FCCFB4
:10309000C80167DA10DCF8CFC80163DA0CDC80E025
:1030A0000F900F900F900F900F90DF91CF911F9185
:1030B0000F91FF90EF90DF90CF9008951F93CF93E3
:1030C000DF93182FC7E4D6E060E088890E94B90E2C
:1030D00083E007D9812F05D980E003D9182F61E05B
:1030E00088890E94B90E812FDF91CF911F91089599
:1030F000EF92FF920F931F93CF93DF931F92CDB761
:10310000DEB7082F162F87E4E82E86E0F82E60E061
:10311000F701808949830E94B90E85E0E2D8802FAB
:10312000E0D8812FDED84981842FDBD861E0F70118
:1031300080890F90DF91CF911F910F91FF90EF90B9
:103140000C94B90ECF92DF92FF920F931F93CF93FF
:10315000DF931F92CDB7DEB7F82E162F042F60E055
:103160008091570679830E94B90E82E0BAD88F2DDC
:10317000B8D8F12EC12E7981D72E8C2D8F198017BA
:1031800028F4F60181916F01ACD8F7CF61E080910E
:1031900057060F90DF91CF911F910F91FF90DF9015
:1031A000CF900C94B90E0F931F93CF93DF9300D061
:1031B0001F92CDB7DEB76130B9F42C833B838A010F
:1031C00022273327602F6C71902F937048E0649F03
:1031D000900D112498609A83980175E03695279593
:1031E0007A95E1F729830DC0B90193E0769567954B
:1031F0009A95E1F769832295220F207E2A831C820B
:103200001B8244E0BE016F5F7F4F9CDF0F900F90E9
:103210000F900F90DF91CF911F910F9108950F9311
:103220001F93CF93DF93082F162FC7E4D6E060E0FB
:1032300088890E94B90E82E054D8802F52D8812FFD
:1032400050D861E08889DF91CF911F910F910C9444
:10325000B90E1F93CF93DF93C7E4D6E060E088896F
:103260000E94B90E80EA3DD880E03BD8182F61E07B
:1032700088890E94B90E812FDF91CF911F91089507
:103280000F931F93CF93DF9300D01F92CDB7DEB77C
:10329000182F109247061092480610924906109275
:1032A0004A0610924B0644E0BE016F5F7F4FAEDCD2
:1032B0008A819981482F50E065E0559547956A9538
:1032C000E1F728E0929F400D511D1124052E000CBE
:1032D000660B770B409348065093490660934A0665
:1032E00070934B0683FF29C092E0440F551F661F61
:1032F000771F9A95D1F78370480F511D611D711D7D
:10330000762F652F542F44278B81480F511D611D47
:10331000711D762F652F542F44278C81480F511D26
:10332000611D711D409348065093490660934A06FB
:1033300070934B0681E0809347068FEF810FBEDECE
:10334000082F84E0810FBADE482F03FF04C081E01C
:103350008093550602C0109255064F7040934C065C
:103360006DE476E085E0810F51DC0F900F900F90B7
:103370000F90DF91CF911F910F9108952091E70653
:103380003091E80612161306C4F488309105A8F4AB
:10339000603198F4E62FF0E0E451FE4F24914111A2
:1033A0002068FC01EF56F94F208B41E0480F60E0A8
:1033B00070E081E996E00C94650908955F926F9240
:1033C0007F928F929F92AF92BF92CF92DF92EF92B5
:1033D000FF920F931F93CF93DF934C01562E672ECE
:1033E000EA01722E132F892B11F40E946209802F9B
:1033F00090E00497D4F7CA010E9441095C01892B2F
:1034000009F453C189E290E00E9441096C010097E0
:10341000C9F0DC015896BC92AE925797AE0165EAAE
:1034200070E0C5010E944A252197F6018789908D99
:10343000C80FD91FB601675E7F4FE52DF62DCF016E
:10344000089606C0C501F6DA30C1E817F90749F059
:103450009F014191DB014D93BD01D9012C912111B7
:10346000F4CFF60110A2802F043008F083E0D601DB
:1034700056968C93569791968C93919792961C9210
:1034800092971B961C921E921A9755961C921E920A
:1034900054971996DC92CE92189724E030E0F90107
:1034A000E81BF1091D96FC93EE931C975396DC9252
:1034B000CE92529793961D921D921D921C929697B2
:1034C00098961C921E92979791E19883FE013197EE
:1034D00082E28083319723E3208331978082319782
:1034E00090823197108231971082319720E82083A3
:1034F000319710823197108231971082319722E0F4
:103500002083319723E02083319724E02083319773
:1035100025E02083319726E02083319727E0208320
:10352000319728E02083319729E02083319720E1EB
:10353000208331979083319792E19083319793E183
:103540009083319794E19083319795E190833197FF
:1035500096E19083319797E19083319798E190833A
:10356000319799E19083319790E29083319791E27E
:10357000908331978083319783E280833197708283
:1035800031971083319786E28083319787E2808379
:10359000319788E28083319789E28083319780E395
:1035A0008083319781E38083A997F601D183C0831B
:1035B000E114F10419F0D701CD92DC920FB6F89422
:1035C0000F9280917F058F5F80937F058091A80582
:1035D0009091A905892B89F5D092A905C092A805DB
:1035E00080917F05813009F037C081E895E014DAD9
:1035F0008AE895E011DA83E995E00EDA8CE995E046
:103600000BDA82EF96E008DA89EE96E005DA85E7D4
:1036100095E002DA8CE695E0FFD983E695E0FCD9E7
:1036200082EF96E0909362058093610589EE96E0C3
:103630009093600580935F050FC080917E05811196
:103640000BC0E091A805F091A9058689081720F024
:10365000D092A905C092A8058091FB068F5F809348
:10366000FB06F601868990918005981710F48093E7
:103670008005B6016E5F7F4FF9E08F9FC001112476
:103680008F579A4F0E944F120F900FBE80917E0568
:10369000882349F0E091A805F091A9058689801753
:1036A00010F40E94C41181E001C08FEFDF91CF912F
:1036B0001F910F91FF90EF90DF90CF90BF90AF9050
:1036C0009F908F907F906F905F900895CF92DF9240
:1036D000EF92FF920F931F93CF93DF936C017A01C8
:1036E0008B01C0E0D0E0CE15DF0589F0D8016D91E7
:1036F0008D01D601ED91FC910190F081E02DC60184
:103700001995892B11F47E0102C02196ECCFC701D7
:10371000DF91CF911F910F91FF90EF90DF90CF90AD
:103720000895CF93C82F482F60EE8FE0E1DC8FE043
:10373000C5DC807E91E08C1301C090E0892FCF9191
:103740000895009761F0FC0101900020E9F731979E
:10375000AF01481B590BBC018AEA95E0B7CF80E066
:1037600090E00895CF93DF93EC0161E083E00E9445
:10377000360F209711F460E004C0CF3FD10531F43B
:1037800061E083E0DF91CF910C94B90EEFE6F2E0B7
:10379000E4918E2F90E0FC013197E231F10508F0C1
:1037A0009DC08827EC57FF4F8F4F0C941B2584B585
:1037B000806884BDC7BD97C084B5806284BDC8BD24
:1037C00092C080918000806880938000D0938900AF
:1037D000C093880088C080918000806280938000C0
:1037E000D0938B00C0938A007EC080918000886057
:1037F00080938000D0938D00C0938C0074C0809122
:10380000B00080688093B000C093B3006CC080911A
:10381000B00080628093B000C093B40064C0809117
:103820009000806880939000D0939900C093980096
:103830005AC080919000806280939000D0939B004A
:10384000C0939A0050C0809190008860809390004F
:10385000D0939D00C0939C0046C08091A0008068DA
:103860008093A0008091A0008F7B8093A000D093D4
:10387000A900C093A80037C08091A0008062809307
:10388000A000D093AB00C093AA002DC08091A000EF
:1038900088608093A000D093AD00C093AC0023C09B
:1038A00080912001806880932001D0932901C093EA
:1038B000280119C080912001806280932001D0935B
:1038C0002B01C0932A010FC0809120018860809352
:1038D0002001D0932D01C0932C0105C0C038D10523
:1038E0000CF04ECF48CFDF91CF910895CF93DF9367
:1038F000CDB7DEB7A2970FB6F894DEBF0FBECDBF2F
:10390000789484B5826084BD84B5816084BD85B5BA
:10391000826085BD85B5816085BD80916E008160C6
:1039200080936E001092810080918100826080936C
:10393000810080918100816080938100809180006E
:103940008160809380008091B10084608093B10099
:103950008091B00081608093B0008091910082607E
:10396000809391008091910081608093910080917B
:1039700090008160809390008091A100826080938C
:10398000A1008091A10081608093A1008091A0009E
:1039900081608093A0008091210182608093210149
:1039A00080912101816080932101809120018160BB
:1039B0008093200180917A00846080937A008091C6
:1039C0007A00826080937A0080917A00816080938F
:1039D0007A0080917A00806880937A001092C1000A
:1039E00083E08093000200913E0510913F05C801DD
:1039F00091D580935D05C80101968CD580935E05B5
:103A000020915D0530915E05809111029091120226
:103A1000A8014E5F5F4F7A012817390739F1A1E1FC
:103A2000CA2EA2E0DA2EF60161916F01C8016AA3E5
:103A300071D56AA1681711F0C80174D50F5F1F4FC7
:103A40000E151F0581F780913E0590913F05029666
:103A500090933F0580933E0519821A821B821C8237
:103A6000BE016F5F7F4F0E94440B15C050933F050E
:103A700040933E05FAE3CF2EF5E0DF2E0A5F1F4F9D
:103A8000C70148D5F60181936F01FFEFEF1AFF0AD6
:103A9000E016F106A9F78091E7069091E80618165E
:103AA000190644F421E04CE060E070E081E996E022
:103AB0000E9465098091E7069091E806181619069C
:103AC00044F428E04AE060E070E081E996E00E947A
:103AD00065098091E7069091E8061816190634F4F6
:103AE00060E070E081E996E00E94E80982E080935E
:103AF000BA008EEB91E090939704809396048AEC41
:103B000091E0909395048093940410929304109202
:103B10009204109291041092900410928F0481E00C
:103B200080938E0410928D0461E084E10E94B90EAE
:103B300061E085E10E94B90E8091B9008E7F80938B
:103B4000B9008091B9008D7F8093B90088E480939B
:103B5000B80085E48093BC008BE293E090939904D5
:103B6000809398048FE0E9E1F2E0A4EAB4E00190E8
:103B70000D928A95E1F78FE0E8E2F2E0A3EBB4E082
:103B800001900D928A95E1F78FE0E7E3F2E0A2EC75
:103B9000B4E001900D928A95E1F78FE0E6E4F2E05F
:103BA000A1EDB4E001900D928A95E1F78FE0E5E593
:103BB000F2E0A0EEB4E001900D928A95E1F78FE07B
:103BC000E4E6F2E0AFEEB4E001900D928A95E1F701
:103BD0008FE0E3E7F2E0AEEFB4E001900D928A955A
:103BE000E1F78FE0E2E8F2E0ADE0B5E001900D92A0
:103BF0008A95E1F78FE0E1E9F2E0ACE1B5E0019010
:103C00000D928A95E1F78FE0E0EAF2E0ABE2B5E0F1
:103C100001900D928A95E1F761E080E10E94360FF4
:103C200061E087E10E94360F61E089E10E94360F72
:103C300061E08EE00E94360F61E084E00E94360F62
:103C400061E083E00E94360F60E084E00E94B90EDC
:103C500064EA662E64E0762E79E4C72E75E0D72EEE
:103C6000812C912C5401EAE02E2E312C412C512C28
:103C7000760103E0930146E950E063ED72E081EDE7
:103C800094E09CDB8130C9F48EED92E05ADD19A2FC
:103C9000A50194018E010F5D1F4FCA01B901A20158
:103CA00091016AD4605DF80162938F01211531059D
:103CB0004105510591F7CF0144DDFFE06F0E711C06
:103CC00042E0C40ED11C5FEF851A950AA50AB50A19
:103CD0008AE088169104A104B10451F6E091BA0576
:103CE000F091BB0552E0F52EF082E091B605F0911F
:103CF000B7051082E091B805F091B90580E18083A5
:103D00001092C205E091BE05F091BF0586E0808368
:103D1000E091BC05F091BD05808180618083E091D8
:103D2000BC05F091BD05808188608083E091BC0571
:103D3000F091BD05808180688083E091BC05F091A1
:103D4000BD0580818F7D808360E082E00E94360F18
:103D500084E390E00E9441098C01009709F48CC132
:103D60004F96F801918380832AE0238FF48E0FB65B
:103D7000F8940F9298012D5C3F4F33832283128E6B
:103D8000958384834296978386838FEF858F868F72
:103D9000C80108960E940C15C80141960E940C1596
:103DA0000F900FBE1093A3040093A20480EE92E044
:103DB000C8DC82EF92E0C5DC10929D0410929C0456
:103DC00010929B0410929A041FB7F89480914005BA
:103DD000811127C0EBEDF1E08491E5E9F1E09491E8
:103DE000E82FF0E0EE0FFF1FEA5BFE4FA591B491C4
:103DF000EC91E92321F461E085E30E94B90E61E0D2
:103E000085E30E94360F8CB580618CBD8CB58064D3
:103E10008CBD61E084E30E94360F61E083E30E9481
:103E2000360F809140058F5F809340051FBF60E093
:103E3000809157060E94B90E80EC0E94711161E0DA
:103E4000809157060E94B90E6AE070E080E090E031
:103E50000E94970F80E865DC81115BC061E48AE213
:103E6000DED961EF89E2DBD965E888E2D8D920E0C4
:103E700030E0A90161E080E296D920E030E0A901BC
:103E800061E084E290D920E030E0A90161E080E0C7
:103E90008AD920E030E0A90160E084E084D920E004
:103EA00030E0A90161E088E07ED920E030E0A9019E
:103EB00060E080E178D920E030E0A90161E084E1B0
:103EC00072D920E030E0A90160E088E16CD910E30C
:103ED00060E0812FA4D960E080E1810FA0D960E08B
:103EE00080E2810F9CD91F5F1E3391F760E080E66E
:103EF00096D960E080E793D963E08BE290D944E003
:103F000064E680E6F5D840E060E680E7F1D880E03E
:103F100008DC8FE190E00E9441098C010097E9F0F4
:103F2000FC01138212821182108215821482178280
:103F30001682128E81E0838F148E8FEF858F868F8D
:103F4000C80108960E940C15C80141960E940C15E4
:103F500060E070E0C8010E9466171093A10400930E
:103F6000A00487E4E82E85E0F82E01E020E030E0B0
:103F70004CE251E065EF72E080E794E01FDA95E4EF
:103F8000E92E95E0F92E20E030E04CE251E06CEFB4
:103F900072E08BEF95E012DA23E4E22E25E0F22EB8
:103FA00020E030E04CE251E062E073E088E79BE023
:103FB00005DA86E793E090930202809301028091F4
:103FC0006A008C7F826080936A00EC9A31E4E32E71
:103FD00035E0F32E00E020E030E044E650E066E01B
:103FE00073E089E295E1EAD9813009F043C0F894A1
:103FF0002FEF3FEF30939F0420939E0480937E0524
:104000001092A6051092A50587BD80916E00826072
:1040100080936E00A091A805B091A905CD91CDBF68
:10402000DD91DEBFFF91EF91DF91CF91BF91AF9115
:104030009F918F917F916F915F914F913F912F91C0
:104040001F910F91FF90EF90DF90CF90BF90AF90B6
:104050009F908F907F906F905F904F903F902F90A8
:104060001F900F900CBE0F900BBE0F900FBE0F90C5
:10407000089504C0811102C00E946209FFCFCF924F
:10408000DF92EF92FF92CF93DF931092AD051092E3
:10409000AC0588EEC82E83E0D82EE12CF12CC0921E
:1040A000AE05D092AF05E092B005F092B10583EB7A
:1040B00092E09093AB058093AA0585EC90E09093F5
:1040C000B7058093B60584EC90E09093B905809392
:1040D000B80580EC90E09093BB058093BA0581EC25
:1040E00090E09093BD058093BC0582EC90E09093A6
:1040F000BF058093BE0586EC90E09093C105809348
:10410000C0051092C3051092C4051092C505109207
:10411000C6058AE08093570661E00E94360F61E091
:10412000809157060E94B90E10925B0610925A06B3
:10413000C0925C06D0925D06E0925E06F0925F0649
:1041400085EC92E09093590680935806CFE1D0E039
:10415000D093E206C093E1068DE190E09093E406EF
:104160008093E3068EE190E09093E6068093E50667
:1041700081E090E09093E8068093E70661E08FE1AC
:104180000E94360F61E08091E3060E94360F61E0E5
:104190008091E5060E94360F61E08091E5060E945D
:1041A000B90ED093E206C093E106E1EAF6E011927F
:1041B00086E0E13EF807D9F7C0E0D0E08091E7065D
:1041C0009091E806C817D907E4F520E04FE0BE015A
:1041D00081E996E00E946509D7FD0EC08091E7064F
:1041E0009091E806C817D9073CF427E04BE0BE01E0
:1041F00081E996E00E94650920E049E0BE0181E97D
:1042000096E00E946509D7FD1AC08091E70690915B
:10421000E806C817D9072CF4BE0181E996E00E9490
:10422000E8098091E7069091E806C817D9073CF4A1
:1042300020E04CE0BE0181E996E00E9465092196EC
:10424000BDCF10928D0610928E0610928F0610929E
:10425000900684E190E0909369068093680680E57B
:1042600090E02BD090936D0680936C0690936F0630
:1042700080936E061092710610927006109273066B
:104280001092720680E796E090937506809374060C
:10429000109277061092760688E492E09093650675
:1042A000809364061092670610926606DF91CF91A4
:1042B000FF90EF90DF90CF900895CF93DF938230FF
:1042C000910510F482E090E0E091FE06F091FF0687
:1042D00020E030E0C0E0D0E0309711F14081518122
:1042E00048175907C0F04817590761F48281938134
:1042F000209719F09B838A832BC09093FF068093AD
:10430000FE0626C02115310519F04217530718F48F
:104310009A01BE01DF01EF010280F381E02DDCCFC5
:104320002115310509F1281B390B2430310590F492
:1043300012968D919C9113976115710521F0FB01E7
:104340009383828304C09093FF068093FE06FD0151
:10435000329644C0FD01E20FF31F819391932250E6
:1043600031092D933C933AC02091FC063091FD0613
:10437000232B41F420911502309116023093FD0653
:104380002093FC062091130230911402211531056F
:1043900041F42DB73EB74091170250911802241BEB
:1043A000350BE091FC06F091FD06E217F307A0F44F
:1043B0002E1B3F0B2817390778F0AC014E5F5F4F7B
:1043C0002417350748F04E0F5F1F5093FD064093AA
:1043D000FC068193919302C0E0E0F0E0CF01DF9111
:1043E000CF9108950F931F93CF93DF93009709F414
:1043F0008CC0FC013297138212820091FE0610914C
:10440000FF060115110581F420813181820F931F70
:104410002091FC063091FD062817390779F5F093B5
:10442000FD06E093FC0671C0D80140E050E0AE17F5
:10443000BF0750F412962D913C911397AD012115B1
:10444000310509F1D901F3CF9D01DA0133832283CC
:1044500060817181860F971F8217930769F4EC01C1
:1044600028813981260F371F2E5F3F4F31832083EC
:104470008A819B8193838283452B29F4F093FF06E5
:10448000E093FE0642C01396FC93EE931297ED0163
:10449000499159919E01240F351FE217F30771F4DA
:1044A00080819181840F951F029611969C938E9323
:1044B0008281938113969C938E931297E0E0F0E0B3
:1044C000D80112968D919C911397009719F0F801DD
:1044D0008C01F6CF8D919C9198012E5F3F4F820FFA
:1044E000931F2091FC063091FD062817390769F4C7
:1044F000309729F41092FF061092FE0602C0138234
:1045000012821093FD060093FC06DF91CF911F915C
:104510000F910895F999FECF92BD81BDF89A992720
:1045200080B50895262FF999FECF1FBA92BD81BD9F
:1045300020BD0FB6F894FA9AF99A0FBE0196089525
:10454000052E97FB16F400940FD057FD05D014D01C
:1045500007FC02D046F408C050954095309521954F
:104560003F4F4F4F5F4F089590958095709561959F
:104570007F4F8F4F9F4F0895A1E21A2EAA1BBB1B9E
:10458000FD010DC0AA1FBB1FEE1FFF1FA217B3071F
:10459000E407F50720F0A21BB30BE40BF50B661F35
:1045A000771F881F991F1A9469F7609570958095F9
:1045B00090959B01AC01BD01CF010895A29FB00170
:1045C000B39FC001A39F700D811D1124911DB29F47
:1045D000700D811D1124911D08955058BB27AA27E5
:1045E0000ED075C166D130F06BD120F031F49F3F11
:1045F00011F41EF45BC10EF4E095E7FB51C1E92F05
:1046000077D180F3BA17620773078407950718F00C
:1046100071F49EF58FC10EF4E0950B2EBA2FA02DEC
:104620000B01B90190010C01CA01A0011124FF275F
:10463000591B99F0593F50F4503E68F11A16F0405A
:10464000A22F232F342F4427585FF3CF4695379559
:104650002795A795F0405395C9F77EF41F16BA0B1E
:10466000620B730B840BBAF09150A1F0FF0FBB1FCC
:10467000661F771F881FC2F70EC0BA0F621F731F15
:10468000841F48F4879577956795B795F7959E3F72
:1046900008F0B3CF9395880F08F09927EE0F979500
:1046A00087950895D9D008F481E008950CD00FC102
:1046B00007D140F0FED030F021F45F3F19F0F0C098
:1046C000511139C1F3C014D198F39923C9F355237B
:1046D000B1F3951B550BBB27AA27621773078407F5
:1046E00038F09F5F5F4F220F331F441FAA1FA9F3AB
:1046F00033D00E2E3AF0E0E830D091505040E6959D
:10470000001CCAF729D0FE2F27D0660F771F881FFD
:10471000BB1F261737074807AB07B0E809F0BB0BEC
:10472000802DBF01FF2793585F4F2AF09E3F510510
:1047300068F0B6C000C15F3FECF3983EDCF38695AD
:1047400077956795B795F7959F5FC9F7880F911D86
:104750009695879597F90895E1E0660F771F881F72
:10476000BB1F621773078407BA0720F0621B730B25
:10477000840BBA0BEE1F88F7E095089504D0689477
:10478000B111D9C00895BCD088F09F5790F0B92FCF
:104790009927B751A0F0D1F0660F771F881F991F96
:1047A0001AF0BA95C9F712C0B13081F0C3D0B1E0A8
:1047B0000895C0C0672F782F8827B85F39F0B93FB8
:1047C000CCF3869577956795B395D9F73EF4909598
:1047D0008095709561957F4F8F4F9F4F0895E89416
:1047E00009C097FB3EF490958095709561957F4F39
:1047F0008F4F9F4F9923A9F0F92F96E9BB279395E7
:10480000F695879577956795B795F111F8CFFAF4F6
:10481000BB0F11F460FF1BC06F5F7F4F8F4F9F4F27
:1048200016C0882311F096E911C0772321F09EE885
:10483000872F762F05C0662371F096E8862F70E0EB
:1048400060E02AF09A95660F771F881FDAF7880FC5
:104850009695879597F90895990F0008550FAA0B1B
:10486000E0E8FEEF16161706E807F907C0F0121683
:104870001306E407F50798F0621B730B840B950B86
:1048800039F40A2661F0232B242B252B21F40895DB
:104890000A2609F4A140A6958FEF811D811D089578
:1048A00097F99F6780E870E060E008959FEF80ECE3
:1048B000089500240A941616170618060906089586
:1048C00000240A9412161306140605060895092EEC
:1048D0000394000C11F4882352F0BB0F40F4BF2B5B
:1048E00011F460FF04C06F5F7F4F8F4F9F4F08959B
:1048F00057FD9058440F551F59F05F3F71F0479591
:10490000880F97FB991F61F09F3F79F08795089575
:10491000121613061406551FF2CF4695F1DF08C094
:10492000161617061806991FF1CF869571056105B1
:1049300008940895E894BB2766277727CB0197F959
:1049400008958ADF08F48FEF08950BD0C0CFB1DF50
:1049500028F0B6DF18F0952309F0A2CFA7CF1124D5
:10496000EACFC6DFA0F3959FD1F3950F50E0551F16
:10497000629FF001729FBB27F00DB11D639FAA27B4
:10498000F00DB11DAA1F649F6627B00DA11D661F03
:10499000829F2227B00DA11D621F739FB00DA11D24
:1049A000621F839FA00D611D221F749F3327A00DDE
:1049B000611D231F849F600D211D822F762F6A2F7A
:1049C00011249F5750408AF0E1F088234AF0EE0FFF
:1049D000FF1FBB1F661F771F881F91505040A9F70C
:1049E0009E3F510570F05CCFA6CF5F3FECF3983E41
:1049F000DCF3869577956795B795F795E7959F5F73
:104A0000C1F7FE2B880F911D9695879597F908950C
:104A100097FB072E16F4009406D077FD08D019D026
:104A200007FC05D03EF4909581959F4F08957095B1
:104A300061957F4F0895EE0FFF1F881F8BBF079072
:104A4000F691E02D1994BADDB7FF0895821B930B00
:104A50000895AA1BBB1B51E107C0AA1FBB1FA617C5
:104A6000B70710F0A61BB70B881F991F5A95A9F717
:104A700080959095BC01CD01089581E090E0F89477
:104A800010C0FB01DC0102C001900D92415050406A
:104A9000D8F70895DC0101C06D9341505040E0F714
:064AA0000895F894FFCF19
:104AA60001870D870D870D870D870D870D870D876C
:104AB6000D1B0000000007800003F0320000FF031A
:104AC600FFFFFFFFFFFFFFFFF6FEF40100FF06FFFB
:104AD600FFFFFFFFFFFFFF04F0320000FF03FFFFB1
:104AE600FFFFFFFFFFFFF7FEE80300FF06FFFFFFE4
:104AF600FFFFFFFFFFEEFEE80300FF06FFFFFFFFDD
:104B0600FFFFFFFFBDFE640000FF06FFFFFFFFFF84
:104B1600FFFFFFF5FE640000FF06FFFFFFFFFFFF3C
:104B2600FFFFCAFE640000FF0600FF00000000FF52
:104B3600FFEFFE640000FF06FFFFFFFFFFFFFFFF22
:104B4600EDFE640000FF06FFFFFFFFFFFFFFFF0013
:104B56000000006115661BEC0C980E1D0DFB0C0F7A
:104B66000D00000000340220024502F40118020480
:104B760002F5015472616D61735F43414E0020007E
:104B860051756575652043726561746564204F4B88
:104B96002E000D0A0043414E5F525800416C697663
:0C4BA60065004C43440049444C450000AD
:00000001FF
